:020000040000FA
:1000000001288316FF3085008601880187150716B1
:100010008717071304309F00193099002430980087
:1000200083129030980081309F0086018801B001D2
:10003000AC01AD01BB01FF30BC003E2220223522C5
:10004000082139220030A020A0008C202108A20025
:1000500032302202031C38283B183A280130A020F5
:10006000A0008C202108643CA3002308A4003A28A7
:100070006430A4005321B22044205220BC0B22281B
:10008000AC213230BC002228AF01AE012408A70009
:10009000A708031908000A30AE070318AF0AA70B18
:1000A0004B2808002F082D02031D5D282E082C0266
:1000B0000319080003186A28602803186A286028B2
:1000C000AC0A0319AD0AB00A043030020319B001BA
:1000D000782008000130AC02031CAD03B003FF30F0
:1000E00030020319742878280330B0007820080003
:1000F00030087D2088008220080082070134023405
:10010000043408340A30B6006430B5000000B50B82
:100110008628B60B842808002008A700A501A601A0
:10012000A70803199D286530A5070318A60AA70B81
:1001300093282608643CA10008006430A100080050
:100140000739B1009F111F129F1231189F15B11866
:100150001F1631199F161F1439221F151F19AE289B
:100160001E080800981805218C1E08001A08AA000D
:100170002A08C039C03C0319DF282A08C039803C4E
:100180000319E42801302A020319E82802302A0260
:100190000319EB2803302A020319EE2804302A023F
:1001A0000319F12805302A020319F42806302A021F
:1001B0000319F72808302A020319FA2808002A0828
:1001C0003F39A4003B1408002A083F393B140800BB
:1001D0000030FD2008002408FD2008002908FD202B
:1001E00008002808FD2008003A08FD20080039080A
:1001F000FD2008002208FD200800AB008316981C93
:10020000FF2883122B0899000800181218160800FE
:10021000831687150716093093008312283094003F
:1002200008008316111483128316111814298312DF
:100230000800831611158312831611191C298312C5
:1002400008008316911483128316911824298312AF
:10025000080093008C1D2A298C118316111B031191
:10026000111F03158312080083169115831283163C
:100270009119372983128C1D37298C111308BD0061
:10028000080083169112111683128316111A45293C
:100290008312080083169116111683128316111A01
:1002A0004E29831208005721392287210800112185
:1002B000EE302921F43029212E302921192139222B
:1002C0001121EE302921F63029212121EF30292179
:1002D00034213D08B700412134213D08B8004A21AE
:1002E00019213708BE003808BF003708A800A80C3D
:1002F000A80CA80CA8132813A81238080F39A900B5
:100300000A302902031809300318A9000800112136
:10031000EE302921F43029213430292119213922C4
:1003200039221121EE302921F63029212121EF3007
:10033000292134213D08B700412134213D08B8006E
:100340004A2119213708B9000310B90DB90DE13060
:10035000B9070030BA0008008030FE2154300F2267
:100360003A300F222808A100E0212E300F22290860
:10037000303E0F2220300F2250300F223A300F2211
:100380003908A100E02133300F22C030FE2178303F
:100390000F226C300F223A300F222208A100E021F8
:1003A00025300F2220300F2278300F2263300F22A9
:1003B0003A300F222408A100E02125300F22080046
:1003C000643021020318F729B3012108B20030304C
:1003D0000F220A303202031CF029B200B30AE929C5
:1003E0003308303E0F223208303E0F2208003130F1
:1003F0000F2230300F2230300F220800B100F039C8
:10040000860086100000061539220611310EF039DB
:100410008600861000000615392206110800B1007A
:10042000F039860086140000061539220611310EB7
:10043000F0398600861400000615392206110800DE
:1004400030303022392230303022392220303022F0
:1004500039222830FE210C30FE210630FE21080012
:10046000860006150000061108000130FE213E221C
:1004700008003230B500B50B3B2A08006430B600E6
:0E048000FF30B500B50B422AB60B402A08002B
:02048E00003438
:02049000003436
:02400E00323F3F
:00000001FF
