:1009FA00FE2CFF30B900B701B80103138316860134
:100A0A000313831608128812031383168030870093
:100A1A0003138316051485140313831604309F00E9
:100A2A000313831281309F00031383128601880106
:100A3A008701B701A601A401AD01EE274D270827BA
:100A4A00652781268F272508313C031C382D03137F
:100A5A0083126430A400031383126430B3000313B7
:100A6A008312B201722D2E26031383122308031355
:100A7A0083123906031D472D031383123708031DFA
:100A8A00722D502D03138312230803138312B90006
:100A9A0003138312B701CC2603138312240803130A
:100AAA008312B30003138312230803138312A800CB
:100ABA0003138312B2011A302802031C6A2D1A305A
:100ACA00A80203138312B20A602D03138312320899
:100ADA000A3A031D722D0930B2007525F825262D14
:100AEA002408260203190800240826020318892D5F
:100AFA001430B000A625031383123818852DF82563
:100B0A00B00B7F2DA60A08001430B00095250313F8
:100B1A0083123818912D5126B00B8B2DA60308008D
:100B2A00B825EF2503138312B80A14303802031DBF
:100B3A009F2DB801AD0A08302D02031D0800AD0132
:100B4A000800B825EF2503138312B80A14303802B7
:100B5A00031DB02DB801AD080319B52DAD0308006A
:100B6A000730AD000800031383122D08003C031957
:100B7A00D72D2D08013C0319DA2D2D08023C031943
:100B8A00DD2D2D08033C0319E02D2D08043C031923
:100B9A00E32D2D08053C0319E62D2D08063C031903
:100BAA00E92DEC2D0130870008000330870008008A
:100BBA0002308700080006308700080004308700EA
:100BCA0008000C3087000800083087000800093048
:100BDA00870008000330A000FF30A100A10BF32D0D
:100BEA00A00BF12D08008530582726082F272E3014
:100BFA005C270313831224080313831226020319A2
:100C0A00122E03138312380803138312A800031049
:100C1A00A80C2808303E5C27202E031383122608CE
:100C2A00643A031D1B2E30305C270800031383121D
:100C3A003208303E5C27C430582703138312350824
:100C4A002F272E305C27031383123408303E5C278B
:100C5A0008000313831281309F00FA271F15000032
:100C6A00000000000000000000000000000000007A
:100C7A00000000000000000000000000000000006A
:100C8A000000000000001F19482E031383121E08DB
:100C9A0003138312A3000800853058270313831215
:100CAA002608FF3E2F272E305C27031383122408C1
:100CBA0003138312260203196F2E031383123808B3
:100CCA0003138312A8000310A80C2808093C303E1D
:100CDA005C27742E031383123208303E5C27C4301B
:100CEA0058270313831235082F272E305C27031346
:100CFA0083123408303E5C270313831289309F0025
:100D0A00FA271F1500000000000000000000000084
:100D1A0000000000000000000000000000000000C9
:100D2A000000000000000000000000001F199B2EB8
:100D3A00031383121E08FF3C03138312A500031337
:100D4A0083122508B500031383122508031383129F
:100D5A00A80003138312B4011A302802031CB92E07
:100D6A001A30A802B40AB12E031383122508FF3AD7
:100D7A00031DC32E03138312B401CB2E0313831254
:100D8A0034080A3A031DCB2E0930B40008002308A0
:100D9A00A800AF01AE012808AE00AF010630B100CD
:100DAA000310AE0DAF0DB10BD52E2E08AC002F08D7
:100DBA00AE002808AF00B1010530A2000310AF0D44
:100DCA00B10DA20BE32E2F08AC070318AE0A3108A7
:100DDA00AE072808AF000310AF0DAF0D2F08AC0700
:100DEA000318AE0A2E08A400FE3023020318022FAD
:100DFA002408643C031C052F08006430A400080082
:100E0A006430A40008008030582743305C277530CE
:100E1A005C2772305C273A305C2725305C273030FB
:100E2A005C2730305C2730305C272E305C2730302E
:100E3A005C27C03058274C305C2744305C2752303E
:100E4A005C273A305C2730305C2730305C27303002
:100E5A005C270800A800A901AA01AB016430280296
:100E6A00031C3A2FA800A90A332F0A302802031CB0
:100E7A00412FA800AA0A3A2F2808AB002908303EB9
:100E8A005C272A08303E5C272B08303E5C27080086
:100E9A00EE27383058270C305827063058270130AB
:100EAA005827EE27080086000812602708008600E7
:100EBA000816602708008816FA278812FA270800F9
:100ECA0003138316193099000313831624309800EC
:100EDA0003138312903098000800031383120C1E28
:100EEA00722F0313831299000800031383128C1EB6
:100EFA007A2F031383121819882F98188C2F03132B
:100F0A0083121A080800031383121A080800181219
:100F1A0018167A2F031383128C1E08007A270313DC
:100F2A008312B600031383123608013A0319BE2F3F
:100F3A00031383123608023A0319C32F03138312C9
:100F4A003608073A0319C82F031383123608083ADA
:100F5A000319CD2F031383123608C039803A0319B7
:100F6A00D22F031383123608C039C03A0319DE2F71
:100F7A00080003138312320872270800031383122E
:100F8A0033087227080003138312340872270800F3
:100F9A0003138312250872270800031383123608E5
:100FAA003F3903138312B200013003138312B700CF
:100FBA0008000313831236083F3903138312B30060
:100FCA00330803138312A400013003138312B700FA
:100FDA0008002830A200FA27A20BF02F08000A30D6
:100FEA00A200FA27A20BF62F0800FA30A10000008F
:060FFA00A10BFC2F080012
:02400E00723FFF
:00000001FF
